{
	"data": {
		"bytecode": {
			"linkReferences": {},
			"object": "6080604052348015600e575f80fd5b50610d368061001c5f395ff3fe608060405234801561000f575f80fd5b5060043610610055575f3560e01c806306ead22e1461005957806336555b851461008b57806357de26a4146100a7578063a7f43779146100c5578063f745630f146100cf575b5f80fd5b610073600480360381019061006e9190610507565b6100eb565b604051610082939291906105cb565b60405180910390f35b6100a560048036038101906100a09190610733565b6101b1565b005b6100af610239565b6040516100bc91906108fb565b60405180910390f35b6100cd610347565b005b6100e960048036038101906100e4919061091b565b610399565b005b5f81815481106100f9575f80fd5b905f5260205f2090600302015f91509050805f018054610118906109a2565b80601f0160208091040260200160405190810160405280929190818152602001828054610144906109a2565b801561018f5780601f106101665761010080835404028352916020019161018f565b820191905f5260205f20905b81548152906001019060200180831161017257829003601f168201915b505050505090806001015490806002015f9054906101000a900460ff16905083565b5f604051806060016040528084815260200183815260200160011515815250908060018154018082558091505060019003905f5260205f2090600302015f909190919091505f820151815f0190816102099190610b6f565b50602082015181600101556040820151816002015f6101000a81548160ff02191690831515021790555050505050565b60605f805480602002602001604051908101604052809291908181526020015f905b8282101561033e578382905f5260205f2090600302016040518060600160405290815f8201805461028b906109a2565b80601f01602080910402602001604051908101604052809291908181526020018280546102b7906109a2565b80156103025780601f106102d957610100808354040283529160200191610302565b820191905f5260205f20905b8154815290600101906020018083116102e557829003601f168201915b5050505050815260200160018201548152602001600282015f9054906101000a900460ff1615151515815250508152602001906001019061025b565b50505050905090565b5f80548061035857610357610c3e565b5b600190038181905f5260205f2090600302015f8082015f610379919061046b565b600182015f9055600282015f6101000a81549060ff021916905550509055565b5f6103a3836103d9565b9050815f82815481106103b9576103b8610c6b565b5b905f5260205f2090600302015f0190816103d39190610b6f565b50505050565b5f805f90505b5f8054905081101561042a57825f82815481106103ff576103fe610c6b565b5b905f5260205f209060030201600101540361041d5780915050610466565b80806001019150506103df565b506040517f08c379a000000000000000000000000000000000000000000000000000000000815260040161045d90610ce2565b60405180910390fd5b919050565b508054610477906109a2565b5f825580601f1061048857506104a5565b601f0160209004905f5260205f20908101906104a491906104a8565b5b50565b5b808211156104bf575f815f9055506001016104a9565b5090565b5f604051905090565b5f80fd5b5f80fd5b5f819050919050565b6104e6816104d4565b81146104f0575f80fd5b50565b5f81359050610501816104dd565b92915050565b5f6020828403121561051c5761051b6104cc565b5b5f610529848285016104f3565b91505092915050565b5f81519050919050565b5f82825260208201905092915050565b8281835e5f83830152505050565b5f601f19601f8301169050919050565b5f61057482610532565b61057e818561053c565b935061058e81856020860161054c565b6105978161055a565b840191505092915050565b6105ab816104d4565b82525050565b5f8115159050919050565b6105c5816105b1565b82525050565b5f6060820190508181035f8301526105e3818661056a565b90506105f260208301856105a2565b6105ff60408301846105bc565b949350505050565b5f80fd5b5f80fd5b7f4e487b71000000000000000000000000000000000000000000000000000000005f52604160045260245ffd5b6106458261055a565b810181811067ffffffffffffffff821117156106645761066361060f565b5b80604052505050565b5f6106766104c3565b9050610682828261063c565b919050565b5f67ffffffffffffffff8211156106a1576106a061060f565b5b6106aa8261055a565b9050602081019050919050565b828183375f83830152505050565b5f6106d76106d284610687565b61066d565b9050828152602081018484840111156106f3576106f261060b565b5b6106fe8482856106b7565b509392505050565b5f82601f83011261071a57610719610607565b5b813561072a8482602086016106c5565b91505092915050565b5f8060408385031215610749576107486104cc565b5b5f83013567ffffffffffffffff811115610766576107656104d0565b5b61077285828601610706565b9250506020610783858286016104f3565b9150509250929050565b5f81519050919050565b5f82825260208201905092915050565b5f819050602082019050919050565b5f82825260208201905092915050565b5f6107d082610532565b6107da81856107b6565b93506107ea81856020860161054c565b6107f38161055a565b840191505092915050565b610807816104d4565b82525050565b610816816105b1565b82525050565b5f606083015f8301518482035f86015261083682826107c6565b915050602083015161084b60208601826107fe565b50604083015161085e604086018261080d565b508091505092915050565b5f610874838361081c565b905092915050565b5f602082019050919050565b5f6108928261078d565b61089c8185610797565b9350836020820285016108ae856107a7565b805f5b858110156108e957848403895281516108ca8582610869565b94506108d58361087c565b925060208a019950506001810190506108b1565b50829750879550505050505092915050565b5f6020820190508181035f8301526109138184610888565b905092915050565b5f8060408385031215610931576109306104cc565b5b5f61093e858286016104f3565b925050602083013567ffffffffffffffff81111561095f5761095e6104d0565b5b61096b85828601610706565b9150509250929050565b7f4e487b71000000000000000000000000000000000000000000000000000000005f52602260045260245ffd5b5f60028204905060018216806109b957607f821691505b6020821081036109cc576109cb610975565b5b50919050565b5f819050815f5260205f209050919050565b5f6020601f8301049050919050565b5f82821b905092915050565b5f60088302610a2e7fffffffffffffffffffffffffffffffffffffffffffffffffffffffffffffffff826109f3565b610a3886836109f3565b95508019841693508086168417925050509392505050565b5f819050919050565b5f610a73610a6e610a69846104d4565b610a50565b6104d4565b9050919050565b5f819050919050565b610a8c83610a59565b610aa0610a9882610a7a565b8484546109ff565b825550505050565b5f90565b610ab4610aa8565b610abf818484610a83565b505050565b5b81811015610ae257610ad75f82610aac565b600181019050610ac5565b5050565b601f821115610b2757610af8816109d2565b610b01846109e4565b81016020851015610b10578190505b610b24610b1c856109e4565b830182610ac4565b50505b505050565b5f82821c905092915050565b5f610b475f1984600802610b2c565b1980831691505092915050565b5f610b5f8383610b38565b9150826002028217905092915050565b610b7882610532565b67ffffffffffffffff811115610b9157610b9061060f565b5b610b9b82546109a2565b610ba6828285610ae6565b5f60209050601f831160018114610bd7575f8415610bc5578287015190505b610bcf8582610b54565b865550610c36565b601f198416610be5866109d2565b5f5b82811015610c0c57848901518255600182019150602085019450602081019050610be7565b86831015610c295784890151610c25601f891682610b38565b8355505b6001600288020188555050505b505050505050565b7f4e487b71000000000000000000000000000000000000000000000000000000005f52603160045260245ffd5b7f4e487b71000000000000000000000000000000000000000000000000000000005f52603260045260245ffd5b7f446f6573206e6f742065786973740000000000000000000000000000000000005f82015250565b5f610ccc600e8361053c565b9150610cd782610c98565b602082019050919050565b5f6020820190508181035f830152610cf981610cc0565b905091905056fea26469706673582212201e763e653b1a7d5199f0b6da944d0107a24c31be77d7d5e65d0739b3d750bd9f64736f6c634300081a0033",
			"opcodes": "PUSH1 0x80 PUSH1 0x40 MSTORE CALLVALUE DUP1 ISZERO PUSH1 0xE JUMPI PUSH0 DUP1 REVERT JUMPDEST POP PUSH2 0xD36 DUP1 PUSH2 0x1C PUSH0 CODECOPY PUSH0 RETURN INVALID PUSH1 0x80 PUSH1 0x40 MSTORE CALLVALUE DUP1 ISZERO PUSH2 0xF JUMPI PUSH0 DUP1 REVERT JUMPDEST POP PUSH1 0x4 CALLDATASIZE LT PUSH2 0x55 JUMPI PUSH0 CALLDATALOAD PUSH1 0xE0 SHR DUP1 PUSH4 0x6EAD22E EQ PUSH2 0x59 JUMPI DUP1 PUSH4 0x36555B85 EQ PUSH2 0x8B JUMPI DUP1 PUSH4 0x57DE26A4 EQ PUSH2 0xA7 JUMPI DUP1 PUSH4 0xA7F43779 EQ PUSH2 0xC5 JUMPI DUP1 PUSH4 0xF745630F EQ PUSH2 0xCF JUMPI JUMPDEST PUSH0 DUP1 REVERT JUMPDEST PUSH2 0x73 PUSH1 0x4 DUP1 CALLDATASIZE SUB DUP2 ADD SWAP1 PUSH2 0x6E SWAP2 SWAP1 PUSH2 0x507 JUMP JUMPDEST PUSH2 0xEB JUMP JUMPDEST PUSH1 0x40 MLOAD PUSH2 0x82 SWAP4 SWAP3 SWAP2 SWAP1 PUSH2 0x5CB JUMP JUMPDEST PUSH1 0x40 MLOAD DUP1 SWAP2 SUB SWAP1 RETURN JUMPDEST PUSH2 0xA5 PUSH1 0x4 DUP1 CALLDATASIZE SUB DUP2 ADD SWAP1 PUSH2 0xA0 SWAP2 SWAP1 PUSH2 0x733 JUMP JUMPDEST PUSH2 0x1B1 JUMP JUMPDEST STOP JUMPDEST PUSH2 0xAF PUSH2 0x239 JUMP JUMPDEST PUSH1 0x40 MLOAD PUSH2 0xBC SWAP2 SWAP1 PUSH2 0x8FB JUMP JUMPDEST PUSH1 0x40 MLOAD DUP1 SWAP2 SUB SWAP1 RETURN JUMPDEST PUSH2 0xCD PUSH2 0x347 JUMP JUMPDEST STOP JUMPDEST PUSH2 0xE9 PUSH1 0x4 DUP1 CALLDATASIZE SUB DUP2 ADD SWAP1 PUSH2 0xE4 SWAP2 SWAP1 PUSH2 0x91B JUMP JUMPDEST PUSH2 0x399 JUMP JUMPDEST STOP JUMPDEST PUSH0 DUP2 DUP2 SLOAD DUP2 LT PUSH2 0xF9 JUMPI PUSH0 DUP1 REVERT JUMPDEST SWAP1 PUSH0 MSTORE PUSH1 0x20 PUSH0 KECCAK256 SWAP1 PUSH1 0x3 MUL ADD PUSH0 SWAP2 POP SWAP1 POP DUP1 PUSH0 ADD DUP1 SLOAD PUSH2 0x118 SWAP1 PUSH2 0x9A2 JUMP JUMPDEST DUP1 PUSH1 0x1F ADD PUSH1 0x20 DUP1 SWAP2 DIV MUL PUSH1 0x20 ADD PUSH1 0x40 MLOAD SWAP1 DUP2 ADD PUSH1 0x40 MSTORE DUP1 SWAP3 SWAP2 SWAP1 DUP2 DUP2 MSTORE PUSH1 0x20 ADD DUP3 DUP1 SLOAD PUSH2 0x144 SWAP1 PUSH2 0x9A2 JUMP JUMPDEST DUP1 ISZERO PUSH2 0x18F JUMPI DUP1 PUSH1 0x1F LT PUSH2 0x166 JUMPI PUSH2 0x100 DUP1 DUP4 SLOAD DIV MUL DUP4 MSTORE SWAP2 PUSH1 0x20 ADD SWAP2 PUSH2 0x18F JUMP JUMPDEST DUP3 ADD SWAP2 SWAP1 PUSH0 MSTORE PUSH1 0x20 PUSH0 KECCAK256 SWAP1 JUMPDEST DUP2 SLOAD DUP2 MSTORE SWAP1 PUSH1 0x1 ADD SWAP1 PUSH1 0x20 ADD DUP1 DUP4 GT PUSH2 0x172 JUMPI DUP3 SWAP1 SUB PUSH1 0x1F AND DUP3 ADD SWAP2 JUMPDEST POP POP POP POP POP SWAP1 DUP1 PUSH1 0x1 ADD SLOAD SWAP1 DUP1 PUSH1 0x2 ADD PUSH0 SWAP1 SLOAD SWAP1 PUSH2 0x100 EXP SWAP1 DIV PUSH1 0xFF AND SWAP1 POP DUP4 JUMP JUMPDEST PUSH0 PUSH1 0x40 MLOAD DUP1 PUSH1 0x60 ADD PUSH1 0x40 MSTORE DUP1 DUP5 DUP2 MSTORE PUSH1 0x20 ADD DUP4 DUP2 MSTORE PUSH1 0x20 ADD PUSH1 0x1 ISZERO ISZERO DUP2 MSTORE POP SWAP1 DUP1 PUSH1 0x1 DUP2 SLOAD ADD DUP1 DUP3 SSTORE DUP1 SWAP2 POP POP PUSH1 0x1 SWAP1 SUB SWAP1 PUSH0 MSTORE PUSH1 0x20 PUSH0 KECCAK256 SWAP1 PUSH1 0x3 MUL ADD PUSH0 SWAP1 SWAP2 SWAP1 SWAP2 SWAP1 SWAP2 POP PUSH0 DUP3 ADD MLOAD DUP2 PUSH0 ADD SWAP1 DUP2 PUSH2 0x209 SWAP2 SWAP1 PUSH2 0xB6F JUMP JUMPDEST POP PUSH1 0x20 DUP3 ADD MLOAD DUP2 PUSH1 0x1 ADD SSTORE PUSH1 0x40 DUP3 ADD MLOAD DUP2 PUSH1 0x2 ADD PUSH0 PUSH2 0x100 EXP DUP2 SLOAD DUP2 PUSH1 0xFF MUL NOT AND SWAP1 DUP4 ISZERO ISZERO MUL OR SWAP1 SSTORE POP POP POP POP POP JUMP JUMPDEST PUSH1 0x60 PUSH0 DUP1 SLOAD DUP1 PUSH1 0x20 MUL PUSH1 0x20 ADD PUSH1 0x40 MLOAD SWAP1 DUP2 ADD PUSH1 0x40 MSTORE DUP1 SWAP3 SWAP2 SWAP1 DUP2 DUP2 MSTORE PUSH1 0x20 ADD PUSH0 SWAP1 JUMPDEST DUP3 DUP3 LT ISZERO PUSH2 0x33E JUMPI DUP4 DUP3 SWAP1 PUSH0 MSTORE PUSH1 0x20 PUSH0 KECCAK256 SWAP1 PUSH1 0x3 MUL ADD PUSH1 0x40 MLOAD DUP1 PUSH1 0x60 ADD PUSH1 0x40 MSTORE SWAP1 DUP2 PUSH0 DUP3 ADD DUP1 SLOAD PUSH2 0x28B SWAP1 PUSH2 0x9A2 JUMP JUMPDEST DUP1 PUSH1 0x1F ADD PUSH1 0x20 DUP1 SWAP2 DIV MUL PUSH1 0x20 ADD PUSH1 0x40 MLOAD SWAP1 DUP2 ADD PUSH1 0x40 MSTORE DUP1 SWAP3 SWAP2 SWAP1 DUP2 DUP2 MSTORE PUSH1 0x20 ADD DUP3 DUP1 SLOAD PUSH2 0x2B7 SWAP1 PUSH2 0x9A2 JUMP JUMPDEST DUP1 ISZERO PUSH2 0x302 JUMPI DUP1 PUSH1 0x1F LT PUSH2 0x2D9 JUMPI PUSH2 0x100 DUP1 DUP4 SLOAD DIV MUL DUP4 MSTORE SWAP2 PUSH1 0x20 ADD SWAP2 PUSH2 0x302 JUMP JUMPDEST DUP3 ADD SWAP2 SWAP1 PUSH0 MSTORE PUSH1 0x20 PUSH0 KECCAK256 SWAP1 JUMPDEST DUP2 SLOAD DUP2 MSTORE SWAP1 PUSH1 0x1 ADD SWAP1 PUSH1 0x20 ADD DUP1 DUP4 GT PUSH2 0x2E5 JUMPI DUP3 SWAP1 SUB PUSH1 0x1F AND DUP3 ADD SWAP2 JUMPDEST POP POP POP POP POP DUP2 MSTORE PUSH1 0x20 ADD PUSH1 0x1 DUP3 ADD SLOAD DUP2 MSTORE PUSH1 0x20 ADD PUSH1 0x2 DUP3 ADD PUSH0 SWAP1 SLOAD SWAP1 PUSH2 0x100 EXP SWAP1 DIV PUSH1 0xFF AND ISZERO ISZERO ISZERO ISZERO DUP2 MSTORE POP POP DUP2 MSTORE PUSH1 0x20 ADD SWAP1 PUSH1 0x1 ADD SWAP1 PUSH2 0x25B JUMP JUMPDEST POP POP POP POP SWAP1 POP SWAP1 JUMP JUMPDEST PUSH0 DUP1 SLOAD DUP1 PUSH2 0x358 JUMPI PUSH2 0x357 PUSH2 0xC3E JUMP JUMPDEST JUMPDEST PUSH1 0x1 SWAP1 SUB DUP2 DUP2 SWAP1 PUSH0 MSTORE PUSH1 0x20 PUSH0 KECCAK256 SWAP1 PUSH1 0x3 MUL ADD PUSH0 DUP1 DUP3 ADD PUSH0 PUSH2 0x379 SWAP2 SWAP1 PUSH2 0x46B JUMP JUMPDEST PUSH1 0x1 DUP3 ADD PUSH0 SWAP1 SSTORE PUSH1 0x2 DUP3 ADD PUSH0 PUSH2 0x100 EXP DUP2 SLOAD SWAP1 PUSH1 0xFF MUL NOT AND SWAP1 SSTORE POP POP SWAP1 SSTORE JUMP JUMPDEST PUSH0 PUSH2 0x3A3 DUP4 PUSH2 0x3D9 JUMP JUMPDEST SWAP1 POP DUP2 PUSH0 DUP3 DUP2 SLOAD DUP2 LT PUSH2 0x3B9 JUMPI PUSH2 0x3B8 PUSH2 0xC6B JUMP JUMPDEST JUMPDEST SWAP1 PUSH0 MSTORE PUSH1 0x20 PUSH0 KECCAK256 SWAP1 PUSH1 0x3 MUL ADD PUSH0 ADD SWAP1 DUP2 PUSH2 0x3D3 SWAP2 SWAP1 PUSH2 0xB6F JUMP JUMPDEST POP POP POP POP JUMP JUMPDEST PUSH0 DUP1 PUSH0 SWAP1 POP JUMPDEST PUSH0 DUP1 SLOAD SWAP1 POP DUP2 LT ISZERO PUSH2 0x42A JUMPI DUP3 PUSH0 DUP3 DUP2 SLOAD DUP2 LT PUSH2 0x3FF JUMPI PUSH2 0x3FE PUSH2 0xC6B JUMP JUMPDEST JUMPDEST SWAP1 PUSH0 MSTORE PUSH1 0x20 PUSH0 KECCAK256 SWAP1 PUSH1 0x3 MUL ADD PUSH1 0x1 ADD SLOAD SUB PUSH2 0x41D JUMPI DUP1 SWAP2 POP POP PUSH2 0x466 JUMP JUMPDEST DUP1 DUP1 PUSH1 0x1 ADD SWAP2 POP POP PUSH2 0x3DF JUMP JUMPDEST POP PUSH1 0x40 MLOAD PUSH32 0x8C379A000000000000000000000000000000000000000000000000000000000 DUP2 MSTORE PUSH1 0x4 ADD PUSH2 0x45D SWAP1 PUSH2 0xCE2 JUMP JUMPDEST PUSH1 0x40 MLOAD DUP1 SWAP2 SUB SWAP1 REVERT JUMPDEST SWAP2 SWAP1 POP JUMP JUMPDEST POP DUP1 SLOAD PUSH2 0x477 SWAP1 PUSH2 0x9A2 JUMP JUMPDEST PUSH0 DUP3 SSTORE DUP1 PUSH1 0x1F LT PUSH2 0x488 JUMPI POP PUSH2 0x4A5 JUMP JUMPDEST PUSH1 0x1F ADD PUSH1 0x20 SWAP1 DIV SWAP1 PUSH0 MSTORE PUSH1 0x20 PUSH0 KECCAK256 SWAP1 DUP2 ADD SWAP1 PUSH2 0x4A4 SWAP2 SWAP1 PUSH2 0x4A8 JUMP JUMPDEST JUMPDEST POP JUMP JUMPDEST JUMPDEST DUP1 DUP3 GT ISZERO PUSH2 0x4BF JUMPI PUSH0 DUP2 PUSH0 SWAP1 SSTORE POP PUSH1 0x1 ADD PUSH2 0x4A9 JUMP JUMPDEST POP SWAP1 JUMP JUMPDEST PUSH0 PUSH1 0x40 MLOAD SWAP1 POP SWAP1 JUMP JUMPDEST PUSH0 DUP1 REVERT JUMPDEST PUSH0 DUP1 REVERT JUMPDEST PUSH0 DUP2 SWAP1 POP SWAP2 SWAP1 POP JUMP JUMPDEST PUSH2 0x4E6 DUP2 PUSH2 0x4D4 JUMP JUMPDEST DUP2 EQ PUSH2 0x4F0 JUMPI PUSH0 DUP1 REVERT JUMPDEST POP JUMP JUMPDEST PUSH0 DUP2 CALLDATALOAD SWAP1 POP PUSH2 0x501 DUP2 PUSH2 0x4DD JUMP JUMPDEST SWAP3 SWAP2 POP POP JUMP JUMPDEST PUSH0 PUSH1 0x20 DUP3 DUP5 SUB SLT ISZERO PUSH2 0x51C JUMPI PUSH2 0x51B PUSH2 0x4CC JUMP JUMPDEST JUMPDEST PUSH0 PUSH2 0x529 DUP5 DUP3 DUP6 ADD PUSH2 0x4F3 JUMP JUMPDEST SWAP2 POP POP SWAP3 SWAP2 POP POP JUMP JUMPDEST PUSH0 DUP2 MLOAD SWAP1 POP SWAP2 SWAP1 POP JUMP JUMPDEST PUSH0 DUP3 DUP3 MSTORE PUSH1 0x20 DUP3 ADD SWAP1 POP SWAP3 SWAP2 POP POP JUMP JUMPDEST DUP3 DUP2 DUP4 MCOPY PUSH0 DUP4 DUP4 ADD MSTORE POP POP POP JUMP JUMPDEST PUSH0 PUSH1 0x1F NOT PUSH1 0x1F DUP4 ADD AND SWAP1 POP SWAP2 SWAP1 POP JUMP JUMPDEST PUSH0 PUSH2 0x574 DUP3 PUSH2 0x532 JUMP JUMPDEST PUSH2 0x57E DUP2 DUP6 PUSH2 0x53C JUMP JUMPDEST SWAP4 POP PUSH2 0x58E DUP2 DUP6 PUSH1 0x20 DUP7 ADD PUSH2 0x54C JUMP JUMPDEST PUSH2 0x597 DUP2 PUSH2 0x55A JUMP JUMPDEST DUP5 ADD SWAP2 POP POP SWAP3 SWAP2 POP POP JUMP JUMPDEST PUSH2 0x5AB DUP2 PUSH2 0x4D4 JUMP JUMPDEST DUP3 MSTORE POP POP JUMP JUMPDEST PUSH0 DUP2 ISZERO ISZERO SWAP1 POP SWAP2 SWAP1 POP JUMP JUMPDEST PUSH2 0x5C5 DUP2 PUSH2 0x5B1 JUMP JUMPDEST DUP3 MSTORE POP POP JUMP JUMPDEST PUSH0 PUSH1 0x60 DUP3 ADD SWAP1 POP DUP2 DUP2 SUB PUSH0 DUP4 ADD MSTORE PUSH2 0x5E3 DUP2 DUP7 PUSH2 0x56A JUMP JUMPDEST SWAP1 POP PUSH2 0x5F2 PUSH1 0x20 DUP4 ADD DUP6 PUSH2 0x5A2 JUMP JUMPDEST PUSH2 0x5FF PUSH1 0x40 DUP4 ADD DUP5 PUSH2 0x5BC JUMP JUMPDEST SWAP5 SWAP4 POP POP POP POP JUMP JUMPDEST PUSH0 DUP1 REVERT JUMPDEST PUSH0 DUP1 REVERT JUMPDEST PUSH32 0x4E487B7100000000000000000000000000000000000000000000000000000000 PUSH0 MSTORE PUSH1 0x41 PUSH1 0x4 MSTORE PUSH1 0x24 PUSH0 REVERT JUMPDEST PUSH2 0x645 DUP3 PUSH2 0x55A JUMP JUMPDEST DUP2 ADD DUP2 DUP2 LT PUSH8 0xFFFFFFFFFFFFFFFF DUP3 GT OR ISZERO PUSH2 0x664 JUMPI PUSH2 0x663 PUSH2 0x60F JUMP JUMPDEST JUMPDEST DUP1 PUSH1 0x40 MSTORE POP POP POP JUMP JUMPDEST PUSH0 PUSH2 0x676 PUSH2 0x4C3 JUMP JUMPDEST SWAP1 POP PUSH2 0x682 DUP3 DUP3 PUSH2 0x63C JUMP JUMPDEST SWAP2 SWAP1 POP JUMP JUMPDEST PUSH0 PUSH8 0xFFFFFFFFFFFFFFFF DUP3 GT ISZERO PUSH2 0x6A1 JUMPI PUSH2 0x6A0 PUSH2 0x60F JUMP JUMPDEST JUMPDEST PUSH2 0x6AA DUP3 PUSH2 0x55A JUMP JUMPDEST SWAP1 POP PUSH1 0x20 DUP2 ADD SWAP1 POP SWAP2 SWAP1 POP JUMP JUMPDEST DUP3 DUP2 DUP4 CALLDATACOPY PUSH0 DUP4 DUP4 ADD MSTORE POP POP POP JUMP JUMPDEST PUSH0 PUSH2 0x6D7 PUSH2 0x6D2 DUP5 PUSH2 0x687 JUMP JUMPDEST PUSH2 0x66D JUMP JUMPDEST SWAP1 POP DUP3 DUP2 MSTORE PUSH1 0x20 DUP2 ADD DUP5 DUP5 DUP5 ADD GT ISZERO PUSH2 0x6F3 JUMPI PUSH2 0x6F2 PUSH2 0x60B JUMP JUMPDEST JUMPDEST PUSH2 0x6FE DUP5 DUP3 DUP6 PUSH2 0x6B7 JUMP JUMPDEST POP SWAP4 SWAP3 POP POP POP JUMP JUMPDEST PUSH0 DUP3 PUSH1 0x1F DUP4 ADD SLT PUSH2 0x71A JUMPI PUSH2 0x719 PUSH2 0x607 JUMP JUMPDEST JUMPDEST DUP2 CALLDATALOAD PUSH2 0x72A DUP5 DUP3 PUSH1 0x20 DUP7 ADD PUSH2 0x6C5 JUMP JUMPDEST SWAP2 POP POP SWAP3 SWAP2 POP POP JUMP JUMPDEST PUSH0 DUP1 PUSH1 0x40 DUP4 DUP6 SUB SLT ISZERO PUSH2 0x749 JUMPI PUSH2 0x748 PUSH2 0x4CC JUMP JUMPDEST JUMPDEST PUSH0 DUP4 ADD CALLDATALOAD PUSH8 0xFFFFFFFFFFFFFFFF DUP2 GT ISZERO PUSH2 0x766 JUMPI PUSH2 0x765 PUSH2 0x4D0 JUMP JUMPDEST JUMPDEST PUSH2 0x772 DUP6 DUP3 DUP7 ADD PUSH2 0x706 JUMP JUMPDEST SWAP3 POP POP PUSH1 0x20 PUSH2 0x783 DUP6 DUP3 DUP7 ADD PUSH2 0x4F3 JUMP JUMPDEST SWAP2 POP POP SWAP3 POP SWAP3 SWAP1 POP JUMP JUMPDEST PUSH0 DUP2 MLOAD SWAP1 POP SWAP2 SWAP1 POP JUMP JUMPDEST PUSH0 DUP3 DUP3 MSTORE PUSH1 0x20 DUP3 ADD SWAP1 POP SWAP3 SWAP2 POP POP JUMP JUMPDEST PUSH0 DUP2 SWAP1 POP PUSH1 0x20 DUP3 ADD SWAP1 POP SWAP2 SWAP1 POP JUMP JUMPDEST PUSH0 DUP3 DUP3 MSTORE PUSH1 0x20 DUP3 ADD SWAP1 POP SWAP3 SWAP2 POP POP JUMP JUMPDEST PUSH0 PUSH2 0x7D0 DUP3 PUSH2 0x532 JUMP JUMPDEST PUSH2 0x7DA DUP2 DUP6 PUSH2 0x7B6 JUMP JUMPDEST SWAP4 POP PUSH2 0x7EA DUP2 DUP6 PUSH1 0x20 DUP7 ADD PUSH2 0x54C JUMP JUMPDEST PUSH2 0x7F3 DUP2 PUSH2 0x55A JUMP JUMPDEST DUP5 ADD SWAP2 POP POP SWAP3 SWAP2 POP POP JUMP JUMPDEST PUSH2 0x807 DUP2 PUSH2 0x4D4 JUMP JUMPDEST DUP3 MSTORE POP POP JUMP JUMPDEST PUSH2 0x816 DUP2 PUSH2 0x5B1 JUMP JUMPDEST DUP3 MSTORE POP POP JUMP JUMPDEST PUSH0 PUSH1 0x60 DUP4 ADD PUSH0 DUP4 ADD MLOAD DUP5 DUP3 SUB PUSH0 DUP7 ADD MSTORE PUSH2 0x836 DUP3 DUP3 PUSH2 0x7C6 JUMP JUMPDEST SWAP2 POP POP PUSH1 0x20 DUP4 ADD MLOAD PUSH2 0x84B PUSH1 0x20 DUP7 ADD DUP3 PUSH2 0x7FE JUMP JUMPDEST POP PUSH1 0x40 DUP4 ADD MLOAD PUSH2 0x85E PUSH1 0x40 DUP7 ADD DUP3 PUSH2 0x80D JUMP JUMPDEST POP DUP1 SWAP2 POP POP SWAP3 SWAP2 POP POP JUMP JUMPDEST PUSH0 PUSH2 0x874 DUP4 DUP4 PUSH2 0x81C JUMP JUMPDEST SWAP1 POP SWAP3 SWAP2 POP POP JUMP JUMPDEST PUSH0 PUSH1 0x20 DUP3 ADD SWAP1 POP SWAP2 SWAP1 POP JUMP JUMPDEST PUSH0 PUSH2 0x892 DUP3 PUSH2 0x78D JUMP JUMPDEST PUSH2 0x89C DUP2 DUP6 PUSH2 0x797 JUMP JUMPDEST SWAP4 POP DUP4 PUSH1 0x20 DUP3 MUL DUP6 ADD PUSH2 0x8AE DUP6 PUSH2 0x7A7 JUMP JUMPDEST DUP1 PUSH0 JUMPDEST DUP6 DUP2 LT ISZERO PUSH2 0x8E9 JUMPI DUP5 DUP5 SUB DUP10 MSTORE DUP2 MLOAD PUSH2 0x8CA DUP6 DUP3 PUSH2 0x869 JUMP JUMPDEST SWAP5 POP PUSH2 0x8D5 DUP4 PUSH2 0x87C JUMP JUMPDEST SWAP3 POP PUSH1 0x20 DUP11 ADD SWAP10 POP POP PUSH1 0x1 DUP2 ADD SWAP1 POP PUSH2 0x8B1 JUMP JUMPDEST POP DUP3 SWAP8 POP DUP8 SWAP6 POP POP POP POP POP POP SWAP3 SWAP2 POP POP JUMP JUMPDEST PUSH0 PUSH1 0x20 DUP3 ADD SWAP1 POP DUP2 DUP2 SUB PUSH0 DUP4 ADD MSTORE PUSH2 0x913 DUP2 DUP5 PUSH2 0x888 JUMP JUMPDEST SWAP1 POP SWAP3 SWAP2 POP POP JUMP JUMPDEST PUSH0 DUP1 PUSH1 0x40 DUP4 DUP6 SUB SLT ISZERO PUSH2 0x931 JUMPI PUSH2 0x930 PUSH2 0x4CC JUMP JUMPDEST JUMPDEST PUSH0 PUSH2 0x93E DUP6 DUP3 DUP7 ADD PUSH2 0x4F3 JUMP JUMPDEST SWAP3 POP POP PUSH1 0x20 DUP4 ADD CALLDATALOAD PUSH8 0xFFFFFFFFFFFFFFFF DUP2 GT ISZERO PUSH2 0x95F JUMPI PUSH2 0x95E PUSH2 0x4D0 JUMP JUMPDEST JUMPDEST PUSH2 0x96B DUP6 DUP3 DUP7 ADD PUSH2 0x706 JUMP JUMPDEST SWAP2 POP POP SWAP3 POP SWAP3 SWAP1 POP JUMP JUMPDEST PUSH32 0x4E487B7100000000000000000000000000000000000000000000000000000000 PUSH0 MSTORE PUSH1 0x22 PUSH1 0x4 MSTORE PUSH1 0x24 PUSH0 REVERT JUMPDEST PUSH0 PUSH1 0x2 DUP3 DIV SWAP1 POP PUSH1 0x1 DUP3 AND DUP1 PUSH2 0x9B9 JUMPI PUSH1 0x7F DUP3 AND SWAP2 POP JUMPDEST PUSH1 0x20 DUP3 LT DUP2 SUB PUSH2 0x9CC JUMPI PUSH2 0x9CB PUSH2 0x975 JUMP JUMPDEST JUMPDEST POP SWAP2 SWAP1 POP JUMP JUMPDEST PUSH0 DUP2 SWAP1 POP DUP2 PUSH0 MSTORE PUSH1 0x20 PUSH0 KECCAK256 SWAP1 POP SWAP2 SWAP1 POP JUMP JUMPDEST PUSH0 PUSH1 0x20 PUSH1 0x1F DUP4 ADD DIV SWAP1 POP SWAP2 SWAP1 POP JUMP JUMPDEST PUSH0 DUP3 DUP3 SHL SWAP1 POP SWAP3 SWAP2 POP POP JUMP JUMPDEST PUSH0 PUSH1 0x8 DUP4 MUL PUSH2 0xA2E PUSH32 0xFFFFFFFFFFFFFFFFFFFFFFFFFFFFFFFFFFFFFFFFFFFFFFFFFFFFFFFFFFFFFFFF DUP3 PUSH2 0x9F3 JUMP JUMPDEST PUSH2 0xA38 DUP7 DUP4 PUSH2 0x9F3 JUMP JUMPDEST SWAP6 POP DUP1 NOT DUP5 AND SWAP4 POP DUP1 DUP7 AND DUP5 OR SWAP3 POP POP POP SWAP4 SWAP3 POP POP POP JUMP JUMPDEST PUSH0 DUP2 SWAP1 POP SWAP2 SWAP1 POP JUMP JUMPDEST PUSH0 PUSH2 0xA73 PUSH2 0xA6E PUSH2 0xA69 DUP5 PUSH2 0x4D4 JUMP JUMPDEST PUSH2 0xA50 JUMP JUMPDEST PUSH2 0x4D4 JUMP JUMPDEST SWAP1 POP SWAP2 SWAP1 POP JUMP JUMPDEST PUSH0 DUP2 SWAP1 POP SWAP2 SWAP1 POP JUMP JUMPDEST PUSH2 0xA8C DUP4 PUSH2 0xA59 JUMP JUMPDEST PUSH2 0xAA0 PUSH2 0xA98 DUP3 PUSH2 0xA7A JUMP JUMPDEST DUP5 DUP5 SLOAD PUSH2 0x9FF JUMP JUMPDEST DUP3 SSTORE POP POP POP POP JUMP JUMPDEST PUSH0 SWAP1 JUMP JUMPDEST PUSH2 0xAB4 PUSH2 0xAA8 JUMP JUMPDEST PUSH2 0xABF DUP2 DUP5 DUP5 PUSH2 0xA83 JUMP JUMPDEST POP POP POP JUMP JUMPDEST JUMPDEST DUP2 DUP2 LT ISZERO PUSH2 0xAE2 JUMPI PUSH2 0xAD7 PUSH0 DUP3 PUSH2 0xAAC JUMP JUMPDEST PUSH1 0x1 DUP2 ADD SWAP1 POP PUSH2 0xAC5 JUMP JUMPDEST POP POP JUMP JUMPDEST PUSH1 0x1F DUP3 GT ISZERO PUSH2 0xB27 JUMPI PUSH2 0xAF8 DUP2 PUSH2 0x9D2 JUMP JUMPDEST PUSH2 0xB01 DUP5 PUSH2 0x9E4 JUMP JUMPDEST DUP2 ADD PUSH1 0x20 DUP6 LT ISZERO PUSH2 0xB10 JUMPI DUP2 SWAP1 POP JUMPDEST PUSH2 0xB24 PUSH2 0xB1C DUP6 PUSH2 0x9E4 JUMP JUMPDEST DUP4 ADD DUP3 PUSH2 0xAC4 JUMP JUMPDEST POP POP JUMPDEST POP POP POP JUMP JUMPDEST PUSH0 DUP3 DUP3 SHR SWAP1 POP SWAP3 SWAP2 POP POP JUMP JUMPDEST PUSH0 PUSH2 0xB47 PUSH0 NOT DUP5 PUSH1 0x8 MUL PUSH2 0xB2C JUMP JUMPDEST NOT DUP1 DUP4 AND SWAP2 POP POP SWAP3 SWAP2 POP POP JUMP JUMPDEST PUSH0 PUSH2 0xB5F DUP4 DUP4 PUSH2 0xB38 JUMP JUMPDEST SWAP2 POP DUP3 PUSH1 0x2 MUL DUP3 OR SWAP1 POP SWAP3 SWAP2 POP POP JUMP JUMPDEST PUSH2 0xB78 DUP3 PUSH2 0x532 JUMP JUMPDEST PUSH8 0xFFFFFFFFFFFFFFFF DUP2 GT ISZERO PUSH2 0xB91 JUMPI PUSH2 0xB90 PUSH2 0x60F JUMP JUMPDEST JUMPDEST PUSH2 0xB9B DUP3 SLOAD PUSH2 0x9A2 JUMP JUMPDEST PUSH2 0xBA6 DUP3 DUP3 DUP6 PUSH2 0xAE6 JUMP JUMPDEST PUSH0 PUSH1 0x20 SWAP1 POP PUSH1 0x1F DUP4 GT PUSH1 0x1 DUP2 EQ PUSH2 0xBD7 JUMPI PUSH0 DUP5 ISZERO PUSH2 0xBC5 JUMPI DUP3 DUP8 ADD MLOAD SWAP1 POP JUMPDEST PUSH2 0xBCF DUP6 DUP3 PUSH2 0xB54 JUMP JUMPDEST DUP7 SSTORE POP PUSH2 0xC36 JUMP JUMPDEST PUSH1 0x1F NOT DUP5 AND PUSH2 0xBE5 DUP7 PUSH2 0x9D2 JUMP JUMPDEST PUSH0 JUMPDEST DUP3 DUP2 LT ISZERO PUSH2 0xC0C JUMPI DUP5 DUP10 ADD MLOAD DUP3 SSTORE PUSH1 0x1 DUP3 ADD SWAP2 POP PUSH1 0x20 DUP6 ADD SWAP5 POP PUSH1 0x20 DUP2 ADD SWAP1 POP PUSH2 0xBE7 JUMP JUMPDEST DUP7 DUP4 LT ISZERO PUSH2 0xC29 JUMPI DUP5 DUP10 ADD MLOAD PUSH2 0xC25 PUSH1 0x1F DUP10 AND DUP3 PUSH2 0xB38 JUMP JUMPDEST DUP4 SSTORE POP JUMPDEST PUSH1 0x1 PUSH1 0x2 DUP9 MUL ADD DUP9 SSTORE POP POP POP JUMPDEST POP POP POP POP POP POP JUMP JUMPDEST PUSH32 0x4E487B7100000000000000000000000000000000000000000000000000000000 PUSH0 MSTORE PUSH1 0x31 PUSH1 0x4 MSTORE PUSH1 0x24 PUSH0 REVERT JUMPDEST PUSH32 0x4E487B7100000000000000000000000000000000000000000000000000000000 PUSH0 MSTORE PUSH1 0x32 PUSH1 0x4 MSTORE PUSH1 0x24 PUSH0 REVERT JUMPDEST PUSH32 0x446F6573206E6F74206578697374000000000000000000000000000000000000 PUSH0 DUP3 ADD MSTORE POP JUMP JUMPDEST PUSH0 PUSH2 0xCCC PUSH1 0xE DUP4 PUSH2 0x53C JUMP JUMPDEST SWAP2 POP PUSH2 0xCD7 DUP3 PUSH2 0xC98 JUMP JUMPDEST PUSH1 0x20 DUP3 ADD SWAP1 POP SWAP2 SWAP1 POP JUMP JUMPDEST PUSH0 PUSH1 0x20 DUP3 ADD SWAP1 POP DUP2 DUP2 SUB PUSH0 DUP4 ADD MSTORE PUSH2 0xCF9 DUP2 PUSH2 0xCC0 JUMP JUMPDEST SWAP1 POP SWAP2 SWAP1 POP JUMP INVALID LOG2 PUSH5 0x6970667358 0x22 SLT KECCAK256 0x1E PUSH23 0x3E653B1A7D5199F0B6DA944D0107A24C31BE77D7D5E65D SMOD CODECOPY 0xB3 0xD7 POP 0xBD SWAP16 PUSH5 0x736F6C6343 STOP ADDMOD BYTE STOP CALLER "
		},
		"gasEstimates": {
			"creation": {
				"codeDepositCost": "676400",
				"executionCost": "706",
				"totalCost": "677106"
			},
			"external": {
				"add(string,uint256)": "infinite",
				"read()": "infinite",
				"remove()": "infinite",
				"students(uint256)": "infinite",
				"update(uint256,string)": "infinite"
			},
			"internal": {
				"find(uint256)": "infinite"
			}
		},
		"methodIdentifiers": {
			"add(string,uint256)": "36555b85",
			"read()": "57de26a4",
			"remove()": "a7f43779",
			"students(uint256)": "06ead22e",
			"update(uint256,string)": "f745630f"
		}
	},
	"abi": [
		{
			"inputs": [
				{
					"internalType": "string",
					"name": "_name",
					"type": "string"
				},
				{
					"internalType": "uint256",
					"name": "_id",
					"type": "uint256"
				}
			],
			"name": "add",
			"outputs": [],
			"stateMutability": "nonpayable",
			"type": "function"
		},
		{
			"inputs": [],
			"name": "read",
			"outputs": [
				{
					"components": [
						{
							"internalType": "string",
							"name": "name",
							"type": "string"
						},
						{
							"internalType": "uint256",
							"name": "id",
							"type": "uint256"
						},
						{
							"internalType": "bool",
							"name": "verify",
							"type": "bool"
						}
					],
					"internalType": "struct Array.item[]",
					"name": "",
					"type": "tuple[]"
				}
			],
			"stateMutability": "view",
			"type": "function"
		},
		{
			"inputs": [],
			"name": "remove",
			"outputs": [],
			"stateMutability": "nonpayable",
			"type": "function"
		},
		{
			"inputs": [
				{
					"internalType": "uint256",
					"name": "",
					"type": "uint256"
				}
			],
			"name": "students",
			"outputs": [
				{
					"internalType": "string",
					"name": "name",
					"type": "string"
				},
				{
					"internalType": "uint256",
					"name": "id",
					"type": "uint256"
				},
				{
					"internalType": "bool",
					"name": "verify",
					"type": "bool"
				}
			],
			"stateMutability": "view",
			"type": "function"
		},
		{
			"inputs": [
				{
					"internalType": "uint256",
					"name": "id",
					"type": "uint256"
				},
				{
					"internalType": "string",
					"name": "_name",
					"type": "string"
				}
			],
			"name": "update",
			"outputs": [],
			"stateMutability": "nonpayable",
			"type": "function"
		}
	]
}